:020000040000FA
:0608000063EF08F0120096
:06080800EAEF05F012000A
:02080E000100E7
:0C081000F41000006A0000000A00000064
:04081C00C580C5B01E
:10082000FED71200C584C5B4FED71200D9CFE6FFAB
:10083000E1CFD9FF9E96FE0EDB50C96E9EA6FED775
:10084000E552E7CFD9FF1200D9CFE6FFE1CFD9FFBC
:10085000E5DF780EE66EEADFE552E66AE7DFE552AD
:10086000FE0EDBCFE6FFE2DFE552DCDFE552E7CF4D
:10087000D9FF1200D9CFE6FFE1CFD9FFCFDF780E45
:10088000E66ED4DFE552400EE66ED0DFE552FE0E96
:10089000DBCFE6FFCBDFE552C5DFE552E7CFD9FF7F
:1008A0001200D9CFE6FFE1CFD9FF020EE126DF6AC1
:1008B000080EDF5C23E2B00EDF24E66EC5DFE552F2
:1008C000E66AC2DFE552100EE66EBEDFE552010EAB
:1008D000DB6A010EDB50006E016AD890015004E61D
:1008E000800E005C000E015807E2E66AC3DFE552A5
:1008F0000400010EDB2AEDD7DF2ADAD7020EE15C15
:1009000002E2E16AE552E16EE552E7CFD9FF12005B
:10091000D9CFE6FFE1CFD9FF060EE126FE0EDB5070
:100920004F0818E1DE523E0EDD6E410EF36E020EF0
:10093000F3CFDBFF410EF36E030EF3CFDBFF410E6F
:10094000F36E040EF3CFDBFF3E0EF36E050EF3CF16
:10095000DBFFCED0FE0EDB50500818E1DE527F0EDA
:10096000DD6E090EF36E020EF3CFDBFF090EF36EA0
:10097000030EF3CFDBFF090EF36E040EF3CFDBFFA4
:10098000060EF36E050EF3CFDBFFB2D0FE0EDB508A
:10099000450818E1DE527F0EDD6E490EF36E020E41
:1009A000F3CFDBFF490EF36E030EF3CFDBFF490EEF
:1009B000F36E040EF3CFDBFF410EF36E050EF3CFA3
:1009C000DBFF96D0FE0EDB504E0818E1DE527F0EA4
:1009D000DD6E040EF36E020EF3CFDBFF080EF36E36
:1009E000030EF3CFDBFF100EF36E040EF3CFDBFF2D
:1009F0007F0EF36E050EF3CFDBFF7AD0FE0EDB50D9
:100A0000430818E1DE523E0EDD6E410EF36E020E1B
:100A1000F3CFDBFF410EF36E030EF3CFDBFF410E8E
:100A2000F36E040EF3CFDBFF220EF36E050EF3CF51
:100A3000DBFF5ED0FE0EDB504C0818E1DE527F0E6D
:100A4000DD6E400EF36E020EF3CFDBFF400EF36E51
:100A5000030EF3CFDBFF400EF36E040EF3CFDBFF8C
:100A6000400EF36E050EF3CFDBFF42D0FE0EDB50DF
:100A7000530818E1DE52260EDD6E490EF36E020EAB
:100A8000F3CFDBFF490EF36E030EF3CFDBFF490E0E
:100A9000F36E040EF3CFDBFF320EF36E050EF3CFD1
:100AA000DBFF26D0FE0EDB50440818E1DE527F0E3D
:100AB000DD6E410EF36E020EF3CFDBFF410EF36EDF
:100AC000030EF3CFDBFF220EF36E040EF3CFDBFF3A
:100AD0001C0EF36E050EF3CFDBFF0AD0010EDB6AAE
:100AE000020EDB6A030EDB6A040EDB6A050EDB6AAC
:100AF000DF6A050EDF5C12E2D950010F006EDACF1B
:100B000001F0DF500F010024E96E000E0120EA6EB3
:100B1000EF50E66EAFDEE552DF2AEBD7E66AAADEDB
:100B2000E5520400060EE15C02E2E16AE552E16E84
:100B3000E552E7CFD9FF1200D9CFE6FFE1CFD9FFC9
:100B4000B40EE66E81DEE5522E0EE66E7DDEE552D7
:100B5000100EE66E79DEE552D950FD0FE96EFF0EFC
:100B6000DA20EA6EEE50ED1019E04F0EE66ED0DEA0
:100B7000E552500EE66ECCDEE552450EE66EC8DE5E
:100B8000E5524E0EE66EC4DEE552200EE66EC0DE85
:100B9000E552200EE66EBCDEE55218D0430EE66E3E
:100BA000B7DEE5524C0EE66EB3DEE5524F0EE66E52
:100BB000AFDEE552530EE66EABDEE552450EE66E55
:100BC000A7DEE552440EE66EA3DEE552E552E7CF1E
:100BD000D9FF1200DACFE4FFE2CFDAFFE9CFE4FF7A
:100BE000EACFE4FFF6CFE4FFF7CFE4FFF5CFE4FF71
:100BF000F3CFE4FFF4CFE4FFFACFE4FF00EE04F01C
:100C0000020EE80403E3EECFE4FFFBD700EE00F0B2
:100C1000040EE80403E3EECFE4FFFBD7E652F2A4B0
:100C200012D0F294E00EE66EB10EE66EE66A27ECA4
:100C300008F0E552E552E5528B8073C0E6FF6FEC99
:100C400008F0E5528B90E55200EE03F0040EE80444
:100C500003E3E5CFEDFFFBD700EE05F0020EE8045D
:100C600003E3E5CFEDFFFBD7E5CFFAFFE5CFF4FFD8
:100C7000E5CFF3FFE5CFF5FFE5CFF7FFE5CFF6FFD3
:100C8000E5CFEAFFE5CFE9FFE5CFDAFF1100D9CFE5
:100C9000E6FFE1CFD9FFE652D38CD38AD398D38233
:100CA0000F0EC16E070EB46E949094929694969225
:100CB0009690929A9288928692849282800EC76EC3
:100CC000280EC66E090EC86E640EE66EE66AB4D8CB
:100CD000E552E552AE0EE66EB7DDE552200EE66E49
:100CE000B3DDE552020EE66EAFDDE552810EE66E33
:100CF000ABDDE5527F0EE66EA7DDE552A10EE66E96
:100D0000A3DDE552C80EE66E9FDDE5528D0EE66E60
:100D10009BDDE552140EE66E97DDE552AF0EE66EF2
:100D200093DDE552BEDD000EE66EE66A05DFE552B4
:100D3000E552D59CD59AD586E00EE66EB10EE66EEC
:100D4000E66A27EC08F0E552E552E552F294F28AA1
:100D5000D58EF28EF28CA5D80400C3D8DF6EDF509A
:100D600063E000017251DF5C5FE092D8320EE66E04
:100D7000E66A62D8E552E55200017051711141E115
:100D8000300EDF5C3EE3DF5039083BE3740E0001B8
:100D90006E25E96E000E00016F21EA6EDFCFEFFFD6
:100DA00000016E2B000E6F230001040E6E1901E18D
:100DB0006F5127E100016A510001745D1EE10001DD
:100DC0006B510001755D19E100016C510001765D08
:100DD00014E100016D510001775D0FE1010E00018A
:100DE000706F716B0001960E736F010EE66EE66A0E
:100DF000A3DEE552E55255D804D000016E6B6F6B4F
:100E000059D8230EDF5C10E10001706B716B00019B
:100E10006E6B6F6B0001640E736F000EE66EE66A18
:100E20008BDEE552E5523DD8DFCF72F095D7E55223
:100E3000E552E7CFD9FF1200D9CFE6FFE1CFD9FFC6
:100E4000020EE126DE6ADD6ADECF00F0DDCF01F0C2
:100E5000FD0EDBCF02F0FE0EDBCF03F00250005C94
:100E6000035001580BE2010EE66E43EC08F0E55228
:100E70000400DF2A010E01E3DB2AE6D7020EE15C63
:100E800002E2E16AE552E16EE552E7CFD9FF1200D6
:100E90008B82320EE66EE66ACFDFE552E5528B9228
:100EA00012008B82C80EE66EE66AC6DFE552E55296
:100EB0008B9212008B82640EE66EE66ABDDFE5520D
:100EC000E5528B92640EE66EE66AB6DFE552E552B5
:100ED0008B82640EE66EE66AAFDFE552E5528B92D6
:100EE00012008D848D828D80898A8D94010EE66E2C
:100EF000E66AA2DFE552E55280B802D0310E57D043
:100F000080B602D0320E53D080B402D0330E4FD010
:100F100080B202D0410E4BD08D848D92010EE66ED0
:100F2000E66A8ADFE552E55280B802D0340E3FD03F
:100F300080B602D0350E3BD080B402D0360E37D00A
:100F400080B202D0420E33D08D828D90010EE66EBB
:100F5000E66A72DFE552E55280B802D0370E27D03C
:100F600080B602D0380E23D080B402D0390E1FD004
:100F700080B202D0430E1BD08D80899A010EE66E9E
:100F8000E66A5ADFE552E55280B802D02A0E0FD049
:100F900080B602D0300E0BD080B402D0230E07D022
:100FA00080B202D0440E03D0898A000E00D0120015
:100FB0000E0EF66E080EF76E000EF86E00010900B8
:100FC000F550656F0900F550666F03E1656701D064
:100FD0003DD00900F550606F0900F550616F0900C0
:100FE000F550626F09000900F550E96E0900F550EF
:100FF000EA6E090009000900F550636F0900F55019
:10100000646F09000900F6CF67F0F7CF68F0F8CFFA
:1010100069F060C0F6FF61C0F7FF62C0F8FF000131
:10102000635302E1645307E00900F550EE6E630775
:10103000F8E26407F9D767C0F6FF68C0F7FF69C038
:0E104000F8FF00016507000E665BBFD71200C7
:02104E00D9CFF8
:10105000E6FFDACFE6FFE1CFD9FFE2CFDAFFE652D3
:10106000E652FC0EDBCFDEFFDBCFDDFF010EDB50F7
:10107000D76EDF50D66EE552E552E552E5CFDAFF86
:06108000E7CFD9FF1200CA
:0A108600FF0EE350066E480E01D085
:101090004C0EE76EE72EFED7E76AE72EFED7062E48
:0610A000F7D7000012006A
:0A10A600000EF36E00EE00F0080EDD
:1010B00001D81200EA6002D0EE6AFCD7F350E96072
:0610C0001200EE6AFCD7ED
:0A10C60013EE00F023EE00F0F86ACC
:0E10D000059CD8EC07F047EC06F0FDD71200A7
:0210DE00FF0E03
:1010E000E350E84E1200000000D000D000D0E82EFF
:0410F000FAD7120019
:0A10F40034323036000000000064C2
:00000001FF
